:020000040800F2
:10000000784D0020850200088B3C000879360008F6
:10001000893C00084D0B0008CD4700080000000097
:10002000000000000000000000000000C501000802
:10003000490C0008000000002102000805400008EB
:100040009F0200089F0200089F0200089F0200080C
:100050009F0200089F0200089F0200089F020008FC
:100060009F0200084B0C00089F0200089F02000836
:100070009F0200089F0200089F0200089F020008DC
:100080009F020008750B00089F0200089F020008ED
:10009000510B00089F0200089F0200089F02000801
:1000A0009F0200089F0200089F0200089F020008AC
:1000B000E14000089F0200089F0200089F0200081C
:1000C0009F0200089F0200089F0200089F0200088C
:1000D0009F020008A94700089F0200089F0200082D
:1000E0009F0200089F0200089F0200089F0200086C
:1000F0009F0200089F0200089F0200089F0200085C
:100100009F0200089F0200089F0200089F0200084B
:100110009F0200089F0200089F0200089F0200083B
:10012000810B00089F0200088D0B00089F02000849
:100130009F0200089F0200089F0200089F0200081B
:100140005D0B0008690B00089F0200089F02000871
:100150009F020008990B00089F020008C147000891
:100160009F0200089F0200089F0200089F020008EB
:100170009F0200089F0200089F0200080000000084
:100180009F0200089F0200089F020008C143000868
:100190009F0200089F0200089F0200089F020008BB
:1001A00000000000000000009F020008DFF810D0EF
:1001B00000F0FCFB00480047DD680008AFF300805A
:1001C000784D00202C4B19680868B0E8F04F80F398
:1001D0000988BFF36F8F4FF0000080F311887047DC
:1001E0000000000008480068006880F308884FF0AD
:1001F000000080F3148862B661B6BFF34F8FBFF37F
:100200006F8F00DF00BF00BF08ED00E0DFF80C00DB
:10021000016841F470010160704700BF88ED00E0A3
:10022000EFF30980BFF36F8F134B1A681EF0100FA6
:1002300008BF20ED108A20E9F04F106009B44FF09C
:10024000500080F31188BFF34F8FBFF36F8F07F01B
:1002500079FD4FF0000080F3118809BC1968086827
:10026000B0E8F04F1EF0100F08BFB0EC108A80F31A
:100270000988BFF36F8F70478C020020EFF3058071
:10028000704700000648804706480047FEE7FEE743
:10029000FEE7FEE7FEE7FEE7FEE7FEE7FEE7FEE736
:1002A000D1400008AD0100082DE9F05F05460020AF
:1002B00092469B4688460646814640241BE02846D7
:1002C00041464746224600F06AFA53465A46C01A4B
:1002D000914110D311461846224600F051FA2D1ACA
:1002E00067EB01084F4622460120002100F048FA42
:1002F00017EB00094E41201EA4F10104DFDC484643
:1003000031462A464346BDE8F09F40EA01039B0779
:1003100003D009E008C9121F08C0042AFAD203E07A
:1003200011F8013B00F8013B521EF9D27047D2B2DE
:1003300001E000F8012B491EFBD270470022F6E7CE
:1003400010B513460A4604461946FFF7F0FF20464B
:1003500010BD2DE9FE4F804681EA0300C00F0C4618
:10036000009021F0004123F00045B8EB0200A941C4
:1003700005D24046214690461C460B46024623F0D5
:100380000040104347D0270DC7F30A00C3F30A51BA
:100390000290401A019040286BDAC3F3130040F436
:1003A000801B0098924620B10023D2EB030A63EB36
:1003B0000B0B01985946C0F14002504600F0E0F99D
:1003C00006460D4650465946019A00F0F8F910EBE2
:1003D00008006141002487EA115284EAE7731A4356
:1003E00040D0009A62B3019A012A4FEA075215DC05
:1003F000001B61EB02014FF0004202EA0752CDE917
:100400000042001C41F5801132462B4600F02FFAC5
:1004100003B0BDE8F08F40462146F9E7001B61EBD1
:100420000201001C41F5801300185B412018A2F561
:10043000001747EB030140EAD570B6196D4111E092
:100440006D084FEA360645EAC0754FEA0752001BB1
:1004500061EB0201001C41F5801149084FEA3000B0
:100460000019514132462B4603B0BDE8F04F00F071
:10047000EFB90098012240000023D0EB020263EBA9
:10048000E073009821464FEAE074B8EB000061EB9E
:100490000401E9E783F000435BE781F0004158E79E
:1004A0002DE9FE4F81EA030404F0004421F00041ED
:1004B00000944FF0000B23F0004350EA01045ED09B
:1004C00052EA03045BD0C3F30A54C1F30A552C4427
:1004D000A4F2F3340194A0FB0254C1F3130141F4DC
:1004E0008011C3F3130343F4801301FB024400FBA8
:1004F000034E840A970A44EA815447EA8357A4FBCF
:10050000076802958D0A05FB07854FEA932C04FBCB
:100510000C542705029D4FEA065847EA1637B5EBFB
:1005200008056EEB070C870E920E47EA811742EA28
:100530008312A7FB0201B6EB0B0164EB00042B0D49
:1005400043EA0C335E1844EB1C50DA465146E7FB95
:100550000201C5F313044FEA0B3343EA14534FEA85
:100560000432019C43EA0603A4F10C040294009CAB
:10057000CDE900B400F07BF903B0BDE8F08F0020B6
:100580000146F9E72DE9F04D81EA030404F0004B40
:1005900021F0004514464FF0000A23F0004150EAD4
:1005A000050220D054EA01021DD0C5F30A570246C5
:1005B000C5F31303C1F31300C1F30A5640F48015C9
:1005C00043F48013A7EB0608101BD64608F2FD384B
:1005D00073EB050002D308F1010801E092185B41BA
:1005E000B8F1000F03DA00200146BDE8F08D0020CD
:1005F0004FF48011064684460EE0171B73EB050787
:1006000005D3121B63EB050306434CEA010C4908B2
:100610004FEA300092185B4150EA0107EDD152EAEF
:10062000030012D082EA040083EA0501084305D0E2
:10063000101BAB4106D20122002306E000224FF03E
:10064000004302E06FF0010253101AEB06004CEB7E
:10065000085110EB0A0041EB0B01BDE8F04D00F032
:10066000F7B80EB5C10F80EAE0700844CA07002150
:1006700040F233438DE80E000A460B4600F0F7F8CF
:1006800003B000BD70B5C1F30A5201F0004500246B
:10069000C1F3130140F2FF3341F480119A4201DAB1
:1006A000002070BD40F233439A42A2F2334203DC91
:1006B000524200F074F800E090402C43F1D04042E8
:1006C00070BD00F0004230F000400AD0C10D01F5CD
:1006D0006071C0F3160042EA0151C208400711439D
:1006E000704700200146704730B5041E71F10004C8
:1006F00004DB4FF00044404264EB0101141E73F12F
:10070000000405DB1C464FF00043524263EB040338
:100710008B4208BF824230BD30B5041E71F1000427
:1007200004DB4FF00044404264EB0101141E73F1FE
:10073000000405DB1C464FF00043524263EB040308
:10074000994208BF904230BD01F0004330B421F01F
:10075000004150EA010206D00A0DA2F56072C1F311
:100760001301002A02DC30BC00207047440F44EA29
:10077000C104C100E01830BC00EBC25000F031B839
:10078000202A04DB203A00FA02F100207047914051
:10079000C2F1200320FA03F3194390407047202A46
:1007A00004DB203A21FA02F00021704721FA02F31B
:1007B000D040C2F120029140084319467047202AD8
:1007C00006DBCB17203A41FA02F043EAE07306E079
:1007D00041FA02F3D040C2F1200291400843194689
:1007E00070470029A8BF7047401C490008BF20F08F
:1007F0000100704710B4B0FA80FC00FA0CF050EA27
:10080000010404BF10BC704749B1CCF1200421FAA7
:1008100004F411FA0CF118BF012121430843A3EBA2
:100820000C01CB1D4FEA00614FEA102042BF0020AF
:1008300010BC704700EBC35010440029A4BF10BC8B
:100840007047401C490008BF20F0010010BC7047F1
:1008500010B5141E73F1000408DA401C41F10001C8
:1008600092185B411A4301D120F0010010BD2DE91F
:10087000F04D92469B4611B1B1FA81F202E0B0FA16
:1008800080F220329046FFF77BFF04460F4640EA95
:100890000A0041EA0B0153465A46084313D0114659
:1008A00053EA010019D0C8F140025046FFF777FF24
:1008B00005460E46504659464246FFF761FF08433B
:1008C00005D0012004E020463946BDE8F08D002027
:1008D000054346EAE0762C4337430A986305E40A69
:1008E000A0EB08000022FD0A44EA47540A3002D572
:1008F00000200146E9E7010510196941DDE90845D5
:1009000000196941BDE8F04DA2E72DE9F04D002343
:100910001A461B1A8A4103DB00200146BDE8F08D10
:10092000C1F30A52C1F3130141F480154FF0000BDB
:10093000D10702D100186D41521E0027044640F233
:10094000FF11384601EB620A3E468046024600200F
:100950004FF48011FFF723FFC2197141BB1846EB1A
:100960000100B4EB030C75EB000C04D3E41A65EB47
:10097000000517460E46241908F101006D41804616
:100980003428E3DDF91946EB0600091BA84103D220
:100990004FF0FF32134601E0002213461BEB070025
:1009A00046EB0A51BDE8F04DFFF752BF064C074D2C
:1009B00006E0E06840F0010394E80700984710342F
:1009C000AC42F6D3FFF7F6FB88860008A88600083D
:1009D0000EB540F2334102910021CDE900110A46E3
:1009E0000B46FFF744FF03B000BD30B58C1810F87C
:1009F000012B12F00F0301D110F8013B120906D1AF
:100A000010F8012B03E010F8015B01F8015B5B1E9D
:100A1000F9D101E001F8013B521EFBD1A142E6D31E
:100A2000002030BD464910B54A6822F440324A6081
:100A30004A6843681A434A6001684A6822F480722F
:100A40004A6001684A68036942EA03224A60016811
:100A50004A6822F040724A6001684A6883681A4313
:100A60004A6001688A6822F400628A6001688A68C4
:100A7000C3681A438A60816A6FF07062D14201686C
:100A80008A6822F070628A6001688A680CD0836A82
:100A90001A438A6001688A6822F040528A600168BD
:100AA0008A68C36A1A4301E022F040528A600168F2
:100AB0008A6822F002028A6001688A68037E42EA3C
:100AC00043028A6090F82010002901684A680FD01C
:100AD00042F400624A6001684A6822F460424A6057
:100AE00001684A68174C436A04EB43331A4301E038
:100AF00022F400624A600168CA6A22F47002CA6283
:100B00000168CA6A838B104C04EB03531A43CA6210
:100B100001688A6822F400728A6001688A6890F825
:100B2000303042EA43228A6001688A6822F4806297
:100B30008A6001688A68406942EA8020886010BD46
:100B40000023014000E0FFFF0000F0FFFEE700008F
:100B5000014800F024BB000074080020014800F0A8
:100B60001EBB00009C080020014800F018BB0000DC
:100B70009C080020014800F029BE0000200B002046
:100B8000014800F023BE000014080020014800F0D6
:100B90001DBE0000800B0020014800F017BE0000C1
:100BA000E00B002001681823CAB2103AB2FBF3F23E
:100BB000054B6FF30901032A9B5CC36500D9091D2E
:100BC00081650846704700003084000810B5014672
:100BD00000208B698A6A4FF0C07453B1B3F5005F8F
:100BE00015D072B1012A0CD0022A0AD0032A09D1E9
:100BF00004E01AB1012A06D0022A03D1C96AC90148
:100C000000D5012010BDC96AA142FAD010BD002A4A
:100C1000F7D0012AF2D0022AF3D0032AF3D010BD74
:100C200030B50468256825F4802525600468636074
:100C30008368402B036803D099600068C26030BDB0
:100C40009A600068C16030BD7047082000F066BF40
:100C500072B6FEE778B50024009490F83C20012A93
:100C600019D0012280F83C200A6807230568092A68
:100C700013D9EE680A3A02EB420293409E43EE60BB
:100C80000B788A680A3B03EB43039A400368DD68EC
:100C90002A43DA6010E0022078BD2E6902EB42029E
:100CA00093409E432E610B788A6803EB43039A407E
:100CB00003681D692A431A614A681F23072A13D251
:100CC00005686E6B521E02EB820293409E436E6378
:100CD0000A8893B20A79521E02EB8202934002689C
:100CE000556B2B43536327E005680D2A12D22E6BF8
:100CF000D21F02EB820293409E432E630B790A8837
:100D0000DB1F92B203EB83039A4003681D6B2A43F7
:100D10001A6311E0EE6A0D3A02EB820293409E43A1
:100D2000EE620B790A880D3B92B203EB83039A4083
:100D30000368DD6A2A43DA621B4B0568194A9D4243
:100D40000AD10D68122D07D1556825F400055560AC
:100D5000556845F48005556005689D421DD1134DC9
:100D60000B68AB4201D0112B17D1536823F48003D9
:100D70005360536843F4000353600968A9420CD1DF
:100D80000B490C4A0968B1FBF2F101EB8101490002
:100D900000E0491E00910029FBD180F83C40002072
:100DA00078BD000000230140002001401200001027
:100DB0008802002040420F0070B504004FF000058B
:100DC00003D0206C002610B107E0012070BD204642
:100DD00000F01CF8666484F83C60206CC00610D4F7
:100DE000206C20F4885040F0020020642046FFF779
:100DF00019FE6664206C20F0020040F001002064BF
:100E000000E0012584F83C60284670BD70B586B0CE
:100E1000064614216846FFF791FA1E493068884259
:100E200035D11D480025016841F4807101600068DA
:100E300000F48070059018481438016841F00101F1
:100E400001600068694600F00100059003200090F1
:100E5000CDE90105114800F06DFE124C1048C4E9BF
:100E600000050015A560C4E90350400060618000E2
:100E7000A0614011E0614FF44030C4E9080520460C
:100E800000F074FD08B1FFF7E3FEB463A66306B09B
:100E900070BD0000002001404438024000000240C4
:100EA000106402401408002090F82020012A07D086
:100EB000022A05D0416A41F4802141620120704735
:100EC000006842690A43426100207047F0B590F81B
:100ED00020500468A468012D05D0022D03D0416A7A
:100EE00041F480215DE014F0406F01D1E50055D55B
:100EF000C4F30164022C03D9416A41F4000150E0BB
:100F00000125A5401D608D684FF4C0739DB1CE686A
:100F100035434E6845EAC605066803EB0417F551EC
:100F20004FF4C275076805EB04150E697E51097D03
:100F3000012905D009E00E88CD6845EA4655EBE762
:100F400001684E5946F480764E511179D57956791B
:100F500041EA056195792D0445EA062529434FF4B8
:100F6000C676056806EB0416A9511178D57841EAD2
:100F70000561957852782D0445EA022211434FF419
:100F8000C475026805EB04155151006803EB0411A8
:100F9000425842F0010242500020F0BD416A41F443
:100FA000001141620120F0BD10B590F82020012A07
:100FB00007D0022A05D0416A41F480214162012014
:100FC00010BD3B48D0F8002242F00102C0F80022D8
:100FD000D0F8002222F47C52C0F80022D0F800227F
:100FE0004B6A42EA0322C0F800220A7D02F01F0386
:100FF00001229A40D0F81C329343C0F81C32CB69CE
:10100000B3B9D0F80C329343C0F80C328C894B68DA
:1010100064F31F434C6900EBC404C4F840320C89EC
:101020000B6864F31F434C6900EBC404C4F84432FA
:10103000CB69012B16D1D0F80C321343C0F80C3217
:101040000C884B6864F31F434C6900EBC404C4F87C
:1010500040320C89CB6864F31F434C6900EBC40435
:10106000C4F844328B69002BD0F804320ED01343FD
:10107000C0F804320B69002BD0F8143208D01343A7
:10108000C0F81432096A012904D008E09343EFE75D
:101090009343F5E7D0F81C121143C0F81C12D0F8A6
:1010A000001221F00101C0F80012002010BD000064
:1010B00000640040704730B590F82040012C05D006
:1010C000022C03D0416A41F480215DE004680029CC
:1010D00055D02469A40754D04FF4D874056804EBA4
:1010E00001142D5915F00405956005682D594ED051
:1010F000ED08556005682C5904F00204D4604FF4E3
:10110000DA74056804EB01142D5905F00F0515611B
:1011100005682D59C5F30725956105682C59240CE0
:1011200054614FF4DC72046802EB0112A4581C7085
:101130000468A458240A5C700468A458240C9C70A9
:101140000468A258120EDA704FF4DE72046802EBE3
:101150000112A4581C710468A458240A5C71046824
:10116000A458240C9C710468A258120EDA7100680D
:1011700081B1016941F020010161002030BDE468C6
:10118000A8E7416A41F400114162012030BD6D0DB4
:101190001560AFE7C16841F02001C160EDE72DE9BE
:1011A000F05F0546006800244669D0F8049087681F
:1011B000D0F80CB0D0F810A0D0F81880F10748D0C3
:1011C000F90714D001218160B80703D5284600F043
:1011D0009CFA0CE0780702D54FF4006407E038076A
:1011E00002D54FF4805402E0284600F08DFAF8054D
:1011F00016D529684FF480708860B80503D5284655
:1012000000F085FA0CE0780502D544F4005407E0BC
:10121000380502D544F4804402E0284600F076FA0E
:10122000F80316D529684FF480308860B80303D5D9
:10123000284600F06EFA0CE0780302D544F400442E
:1012400007E0380302D544F4803402E0284600F079
:101250005FFA300707D55FEACB6004D52968102014
:1012600044F40074C86070074FF0080707D55FEAC0
:101270000B7004D52868C760284600F0A1F9B007B4
:1012800006D52868C068800702D0284600F09AF981
:10129000700607D55FEACA6004D52968102044F4B7
:1012A00080640861B00607D55FEA0A7004D5286833
:1012B0000761284600F0F8F9F00606D528680069AD
:1012C000800702D0284600F0F0F9B00308D55FEAA5
:1012D000C96005D5296810204860284600F0E6F965
:1012E000F00307D55FEA097004D5286847602846EF
:1012F00000F010FA300446D55FEA497040D5F00599
:1013000004D55FEAC87001D044F00104B00504D5EB
:101310005FEA887001D544F00204700504D55FEAE5
:10132000487001D544F00404300529D518F0700F39
:1013300026D008F07000402815D006DC102809D00F
:1013400020280AD0302816D10AE050280ED0602874
:1013500011D10EE044F008040DE044F010040AE05E
:1013600044F0200407E044F0400404E044F080042A
:1013700001E044F480742868816921F07001816182
:10138000296804204860002C05D0686A2043686200
:101390002846FFF78FFEBDE8F09F70B5040003D02C
:1013A00094F8200010B104E0012070BD204600F048
:1013B00081F82068016841F00101016000F0DAFC69
:1013C0000546052604E000F0D5FC401B0A2811D88C
:1013D00020684068C007F6D02068016821F002014B
:1013E000016000F0C7FC05460BE000F0C3FC401BA9
:1013F0000A2806D9606A40F40030606284F82060F0
:10140000D2E7206840688007EFD4207E012820685A
:1014100001683DD021F080010160607E01282068D4
:10142000016838D021F040010160A07E01282068C9
:10143000016833D021F020010160E07E012820689E
:1014400001682ED041F010010160207F0128206842
:10145000016829D021F008010160607F012820681F
:10146000016824D021F004010160D4E9020108439D
:10147000D4E90412114308436168491E08432168F6
:10148000C86100206062012084F82000002070BD47
:1014900041F08001C0E741F04001C5E741F0200183
:1014A000CAE721F01001CFE741F00801D4E741F08D
:1014B0000401D9E7F0B587B0044614216846FEF769
:1014C0003DFF3A4B3A48DFF8E0E01968D4F800C035
:1014D000374A03250226092710300024491CF44509
:1014E00022D11960012907D1016841F00071016022
:1014F000006800F000700590106840F0080010606F
:101500001068CDE9005600F00800CDE90470694686
:101510002848CDE9024500F00DFB002205211420EA
:1015200000F02AFE14203BE0DFF88CE0F44539D1CE
:10153000D0F800C04CF0806CC0F800C0D0F800C0FB
:1015400001290CF0806CCDF814C0196007D1016836
:1015500041F000710160006800F0007005901068B3
:1015600040F002001060106802AB00F0020005902D
:101570004FF44050CDE9000683E8B00069460F48BB
:1015800000F0D8FA01220521402000F0F5FD4020AE
:1015900000F0E4FD00220521412000F0EDFD412096
:1015A00000F0DCFD07B0F0BD0064004074020020D4
:1015B00030380240000C0240006800400004024045
:1015C0007047000070B5064600683349334D344C0F
:1015D0008AB0884235D104F130036A460021304692
:1015E000FFF769FD0098A0F5007064280FD2C1B222
:1015F00004F1300001EB4101028805EB810152BA90
:101600008A80428852BACA80808840BA4880B5F938
:1016100012002060B5F91E006060B5F92A00A060D4
:10162000B5F93600E060B5F84C002061B5F840002F
:101630006061B5F942002062B5F85800E061012010
:10164000606218493068884224D107AB6A4600219D
:101650003046FFF730FD0098A0F50071642914D2E0
:10166000A0F5FC70C0B2BDF81C1000EB400005EB0B
:10167000800049BA8180BDF81E1049BAC180BDF80A
:10168000201049BA01810320E062B5F97200A0611F
:101690001420A0620AB070BD00640040F80200206F
:1016A000000000200068004070477047704700004D
:1016B00070B5044690F82000012804D0606A40F418
:1016C0000020606218E0022084F820002068016891
:1016D00021F00101016000F04DFB05460EE000BF66
:1016E00000F048FB401B0A2808D9606A40F400302B
:1016F0006062052084F82000012070BD20684068E9
:10170000C007EDD1606270BD704770477047704789
:101710007047704770472DE9F0410446876D00F02F
:1017200029FB064694F835000025022806D08020C3
:10173000606584F834500120BDE8F08120680168BC
:1017400021F0160101602068416921F080014161AA
:10175000206C08B9A06C20B12068016821F0080154
:1017600001602068016821F0010101600CE000F0D7
:1017700001FB801B052807D920206065032084F821
:10178000350084F83450D7E720680068C007EED1F0
:1017900094F85C103F208840B860012084F8350040
:1017A00084F834500020C7E790F83510022903D0A0
:1017B0008021416501207047052180F835100068BF
:1017C000016821F001010160002070472DE9F84314
:1017D00004464FF00009CDF8009063484FF41651CD
:1017E000A56D0068B0FBF1F72E6894F85C10082036
:1017F00000FA01F131420FD021680A6852070BD577
:101800000A6822F004020A6094F85C108840A8601C
:10181000606D40F00100606594F85C104FF00108C5
:1018200008FA01F0304208D021684969090604D558
:10183000A860606D40F00200606594F85C100420C0
:101840008840304208D021680968890704D5A8601B
:10185000606D40F00400606594F85C1010208840D2
:10186000304218D021680968090714D5A86020689B
:101870000168490304D50068000308D5A16C07E09E
:101880000168C90503D4016821F008010160216CD9
:1018900009B12046884794F85C10202088403042E7
:1018A00031D021680968C9062DD5A86094F83500A3
:1018B00005282068016806D0490347D50068000361
:1018C0001DD4616C1CE021F01601016020684169A3
:1018D00021F080014161206C08B9A06C20B1206822
:1018E000016821F00801016094F85C103F208840F5
:1018F000A86084F8358084F83490216D1FE0E16B96
:1019000009B120468847606D00282BD0606DC00764
:1019100014D0052084F835002068016821F0010109
:1019200001600098401C0090B84203D8206800680D
:10193000C007F6D184F8358084F83490E16C002932
:1019400010D001B02046BDE8F04308470168C90542
:10195000D5D4016821F01001016084F8358084F845
:101960003490CCE7BDE8F883880200202DE9F041EF
:10197000044600F0FFF906465CB1022084F8350009
:10198000002584F834502068016821F001010160CD
:101990000DE00120BDE8F08100F0ECF9801B052886
:1019A00005D920206065032084F83500F2E720681F
:1019B0000068C007F0D12268116820480140D4E9CE
:1019C00001031843D4E903363343184363691843CA
:1019D000A3691843E3691843236A18430843616AFB
:1019E000042903D1D4E90B1319430843106020687C
:1019F0004069666A20F0070130460E43012704283B
:101A00000CD1A06A0643E06A40B12046FFF7DEF839
:101A100020B14020606584F83570BAE720684661DF
:101A20002046FFF7BFF894F85C203F219140816089
:101A3000656584F835700020ACE700003F8010F049
:101A400070B5044690F83400002501280CD0012020
:101A500084F8340094F835600020012E06D084F814
:101A600034000225284670BD022070BD022684F88D
:101A7000356060652046FFF7D3F82068016841F0C3
:101A800001010160EEE72DE9F0410446866D90F812
:101A90003400002501280DD0012084F8340094F88A
:101AA00035700020012F07D084F834000225284625
:101AB000BDE8F0810220FBE7022784F835706065FD
:101AC0002046FFF7ADF894F85C103F208840B060E6
:101AD0002068016841F016010160206C20B1206887
:101AE000016841F0080101602068016841F00101CE
:101AF0000160DCE770B5044600F03CF90546601C67
:101B000002D004480078044400F034F9401BA0429D
:101B1000FAD370BD7C02002070470000044910B564
:101B20000A68024202D00860FFF7F6FF10BD00000D
:101B3000143C01402DE9F84FDFF8F8A10022012400
:101B400003254FF00F090AF1040BAAF1040E00BFA0
:101B50000B6804FA02F63340B34270D10F7907F0F4
:101B60000307012F01D0022F16D187684FEA4208E0
:101B700005FA08FC27EA0C07D1F80CC00CFA08FC9F
:101B80004CEA070CC0F808C04768B7430E79C6F3A3
:101B9000001696403E4346600E79F643B6070AD0DB
:101BA000C7684FEA420C05FA0CF6B7438E6806FA8E
:101BB0000CF63E43C6600E7906F00306022E10D1E5
:101BC000D60800EB8608D8F8206057074FEAD76C94
:101BD00009FA0CF7BE430F6907FA0CF73743C8F848
:101BE000207006684FEA420C05FA0CF7BE430F79E5
:101BF00007F0030707FA0CF7374307604E6816F43F
:101C0000403F1CD04C4E376847F4804737603668F9
:101C100022F0030706F480460096484E07EB060CB8
:101C2000DCF8086897073F0F09FA07F826EA080664
:101C3000DFF80C81404503D14FF0000841E072E02D
:101C4000DFF80081404502D14FF0010839E0DFF8AC
:101C5000F880404502D14FF0020832E0DFF8EC8016
:101C6000404502D14FF003082BE0DFF8E480404507
:101C700002D14FF0040824E0DFF8D880404502D1BB
:101C80004FF005081DE0DFF8D080404502D14FF04D
:101C9000060816E0DFF8C480404502D14FF007087F
:101CA0000FE0DFF8BC80404502D14FF0080808E0A3
:101CB000DFF8B080404502D14FF0090801E04FF055
:101CC0000A0808FA07F848EA0608CCF80888DAF89B
:101CD00000605746D1F804C09E435FEACC2C00D583
:101CE0001E433E60DBF800605F46D1F804C09E43AF
:101CF0005FEA8C2C00D51E433E60DEF8006077461C
:101D0000D1F804C09E435FEA8C3C00D51E433E6080
:101D1000084F083F3E68D1F804C09E435FEACC3CC0
:101D200000D51E433E60521C102AFFF411AFBDE8DF
:101D3000F88F0000083C0140443802400030014068
:101D4000000002400004024000080240000C024073
:101D5000001002400014024000180240001C024023
:101D600000200240002402400AB18161704709044A
:101D7000FBE7000001488068704700007C020020FB
:101D800090F83D20202A01D002207047242280F8BC
:101D90003D200268136823F0010313600268536A50
:101DA00023F0100353620268536A0B4353620168C5
:101DB0000A6842F001020A60202180F83D100020EC
:101DC000704790F83D20202A01D00220704724223D
:101DD00080F83D200268136823F001031360036854
:101DE0005A6A22F00F020A4391B2596201680A68E6
:101DF00042F001020A60202180F83D100020704767
:101E000070B5040025D094F83D00002520B984F871
:101E10003C50204600F0B8F8242084F83D002068AB
:101E2000016821F0010101602068016841F400416E
:101E300001602068016821F40041016000F0C0FAEF
:101E40004D4A6168914201D84C4900E04C498842B2
:101E500001D2012070BD4B492368B0FBF1F15E68EF
:101E600026F03F060E435E606368934206D94FF446
:101E7000967359434FF47A73B1FBF3F12368491C0D
:101E80001E6A26F03F06314319626168914210D8FC
:101E90004900401EB0FBF1F2521CC2F30B02042AAF
:101EA00001D2042022E0B0FBF1F0401CC0F30B0093
:101EB0001CE0A268F2B301EBC10303EB0116431E61
:101EC000B3FBF6F35B1C43F480431B0549D092B38C
:101ED00001EBC10202EB0111401EB0FBF1F0401C0E
:101EE000C0F30B0040F4804040F400402168CA6910
:101EF0004CF6FF739A431043C861D4E907100143BD
:101F00002068026822F0C00211430160D4E9030195
:101F100001432068826848F2FF339A43114381608D
:101F2000D4E9050108432168CA6822F0FF02104382
:101F3000C86001E00EE016E02068016841F0010190
:101F400001602564202084F83D00256384F83E501C
:101F5000002070BD01EB4106431EB3FBF6F35B1C92
:101F6000B3E70120C2E701EB4101401EB0FBF1F0F5
:101F7000401CC0F30B00B7E7A086010080841E0060
:101F800000093D0040420F002DE9F04186B00446B3
:101F900014216846FEF7D2F92E4A2168DFF8B8808E
:101FA00000252D4803241226042708F11008914229
:101FB0001BD1016841F0200101600068CDE90046B5
:101FC00000F02000CDE90470CDE9025469462348B1
:101FD000FFF7B0FDD8F8001041F48001C8F80010F8
:101FE000D8F8000000F4800030E01D4A91422ED164
:101FF000016841F004010160016801F004010591EC
:10200000016841F0800101600068CDE9025400F0F0
:10201000800005905015CDE90006694604971148E7
:10202000FFF788FD8020CDE90006CDE9025469461E
:1020300004970D48FFF77EFDD8F8001041F4000129
:10204000C8F80010D8F8000000F40000059006B0B1
:10205000BDE8F081005800403038024000140240D2
:10206000005C004000080240001C024002488168F9
:1020700002781144816070477C0200200B4810B543
:10208000016841F400710160016841F48061016000
:10209000016841F480710160032000F08DF80F2089
:1020A00000F006F800F03EF8002010BD003C0240B1
:1020B00010B5014688B000221C2000F05DF81C20FD
:1020C00000F04CF814480024016841F0010101605F
:1020D000006805A900F001000690684600F050F97C
:1020E00000F06EF90D494000B0FBF1F10C484FF0E3
:1020F0008042491E026040F2E732C0E90324C0E991
:10210000011400F069FD10B1012008B010BD0448B1
:1021100000F0B2FDF9E700004038024040420F00F5
:10212000400C00200C4882B0016841F480410160FD
:10213000006800F4804000900748001F016841F0EB
:10214000805101600068002200F0805000900F2153
:10215000901E02B000F010B844380240002809DB9D
:1021600000F01F02012191404009800000F1E020B1
:10217000C0F8001170470000F0B40E4B1B680C460D
:10218000C3F30223C3F10705042D00D90425191D4B
:10219000072901D2002300E0DB1E012606FA05F123
:1021A000491E214099409E40761E16403143F0BCA6
:1021B00002F02EBB0CED00E0064900F007020868B3
:1021C0004FF6FF03184040EA0220034A104308601C
:1021D000704700000CED00E00000FA052DE9F8431F
:1021E0001748016841F0805101600068154F00F008
:1021F0008050012600903E64FFF7BCFD05464FF479
:102200007A78114C05E000BFFFF7B4FD401B404554
:102210000DD86068C003F7D57E64FFF7ABFD0546B7
:10222000464607E0FFF7A6FD401BB04202D9032057
:10223000BDE8F88360688003F4D50020F8E700006B
:102240004038024000000E42007000402DE9F04787
:102250000E46050065D0DFF81481D8F80000F7B20B
:1022600000F00F00B04207D288F80070D8F80000E4
:1022700000F00F00B04254D128683D4C810712D5C0
:10228000400703D5206840F4E0502060287800071C
:1022900003D5206840F4604020602068A96820F0E1
:1022A000F000084320602878C0072DD030496868C6
:1022B0000839012812D0022813D0032811D0096848
:1022C000890700292DDA216821F0030101432160EB
:1022D000FFF750FD814641F2883A0EE00968890314
:1022E000EFE709688901ECE7FFF744FDA0EB09017E
:1022F000514502D90320BDE8F0872068696800F0E5
:102300000C00B0EB810FEFD1D8F80010404601F07F
:102310000F01B14207D90770006800F00F00B0420A
:1023200001D00120E7E72878400705D52068E96853
:1023300020F4E050084320602878000706D5206884
:10234000296920F4604040EAC100206000F058F89C
:102350002168084AC1F30311515CC840064908606E
:1023600006480068FFF7A4FE0020C4E7003C0240D6
:1023700008380240388400088802002080020020CB
:102380000F2202600C4A136803F0030343601368D2
:1023900003F0F0038360136803F4E053C360126832
:1023A0004FF4E05303EAD20202610448006800F0EF
:1023B0000F0008607047000008380240003C0240EF
:1023C0000448054900680968044AC1F38221515C48
:1023D000C84070478802002008380240488400083E
:1023E0000448054900680968044AC1F34231515C58
:1023F000C84070478802002008380240488400081E
:10240000154810B5006810F00C02144813D0144998
:10241000042A0FD0082A0ED10F4C241F22682368EB
:1024200002F03F025B0207D52068C0F38810A0FBD2
:10243000010106E0084610BD2168C1F38811A1FB27
:1024400000010023FDF730FF2168C1F30141491C61
:102450004900B0FBF1F010BD083802400024F40040
:10246000001BB7002DE9F84F04006ED02078DFF88C
:102470004C93C007A9F104054AD009F10400016892
:10248000C1F38101012908D00068C0F3810002284E
:102490000AD1D9F80000400206D52868800337D554
:1024A00060680028E1D033E06068B0F5803F10D06C
:1024B000B0F5A02F286810D020F48030286028685C
:1024C00020F4802028606068A8B1FFF753FC06461E
:1024D0000DE0286840F48030F4E740F48020286064
:1024E000F7E700BFFFF746FC801B642873D8286815
:1024F0008003F7D50CE0FFF73DFC064605E000BF82
:10250000FFF738FC801B6428F0D828688003F7D4D4
:102510002078DFF8AC8280074FF0000A3ED5A7484C
:10252000001D016811F00C0F08D00068C0F3810095
:1025300002280BD1D9F80000400207D42868800790
:1025400016D5E068012800D112E033E1E068B8B1A7
:102550000120C8F80000FFF70DFC064605E000BFAB
:10256000FFF708FC801B0228C0D828688007F7D531
:102570002868216920F0F80040EAC10028600DE0D9
:10258000C8F800A0FFF7F6FB064604E0FFF7F2FBF1
:10259000801B02281FD828688007F7D420780007FE
:1025A00022D5864F87486169703771B1012101607A
:1025B000FFF7E0FB064604E0FFF7DCFB801B022888
:1025C00009D838688007F7D50EE0C0F800A0FFF7FB
:1025D000D1FB064605E082E0FFF7CCFB801B02281A
:1025E0007DD838688007F7D42078400768D5DFF8B1
:1025F000CCB100270BF13C0BDBF80000C0000BD482
:10260000DBF8001041F08051CBF80010DBF800003F
:10261000012700F0805000906B4E3068C00510D448
:10262000306840F480703060FFF7A4FB009005E054
:10263000FFF7A0FB0099401A022850D83068C00567
:10264000F6D55E4EA0686C3601280FD0052830689C
:1026500010D020F001003060306820F004003060BD
:10266000A068B8B1FFF786FB00900FE0306840F03B
:102670000100F4E740F004003060F7E7FFF77AFB71
:102680000099411A41F28830814266D8306880074B
:10269000F4D50EE0FFF76EFB009007E0FFF76AFB52
:1026A0000099411A41F28830814256D8306880073B
:1026B000F4D42FB1DBF8001021F08051CBF80010DA
:1026C000A069C8B33D49091D0968C1F38101022908
:1026D0004AD00228504607D0C8F8600000E03CE02D
:1026E000FFF748FB04463BE04746C8F86000FFF7A9
:1026F00041FB064605E000BFFFF73CFB801B0228BC
:102700002BD828688001F7D4D4E907010843A16ACF
:102710002E4A490802EB0141626A41EA82110843EC
:1027200094F82C1040EA0161C9F8001001203866C5
:10273000FFF720FB044606E03EE000BFFFF71AFB70
:10274000001B022809D828688001F7D534E000BFB3
:10275000FFF710FB001B022802D90320BDE8F88F09
:1027600028688001F4D427E00128F7D0D9F80000C8
:10277000E26900F4800191421CD1226A00F03F011D
:10278000914217D147F6C071626A0140B1EB821FD6
:1027900010D1A26A4FF0FF3300F4403103EB520234
:1027A000B1EB024F06D194F82C1000F07060B0EB42
:1027B000016F01D00120D1E70020CFE704380240AB
:1027C00000004742800E4742007000400000FFFFBB
:1027D00070B5040009D0606A002540B125616561CB
:1027E000A56294F8510040B10CE0012070BD606812
:1027F000B0F5827FF4D0E561F2E784F850502046CE
:1028000000F044F8022084F851002068016821F0AB
:1028100040010160A088218900F4827001F4044124
:102820000843A18901F400610843217C01F0020101
:102830000843217D01F001010843218B01F400715F
:102840000843217F01F03801084394F8201001F07B
:1028500080010843218D01F400510843216808607C
:10286000A069042101EA104094F8241001F010013D
:102870000843216848602068C16921F40061C16192
:102880006565012084F85100002070BD30B587B027
:10289000044614216846FDF751FD19492068884215
:1028A0002CD118480024016841F4801101600068AF
:1028B00000F48010059013481438016841F020019D
:1028C00001600068104D00F0200005904FF460702A
:1028D00000900220CDE9010403200390052004901C
:1028E00069462846FFF726F9402000900120CDE9EF
:1028F0000104694628460394FFF71CF907B030BD70
:102900000050014044380240001402402DE9F84FC5
:10291000044690F8500000270A9E1D4692468B46BA
:102920004FF0010901280ED0012084F85000FFF774
:1029300021FA804694F85100616801280CD0B1F565
:10294000827F07D102E00220BDE8F88FA16809B9B3
:10295000042801D00227C2E0BBF1000F27D0BAF152
:10296000000F24D01DB394F85100042802D0052094
:1029700084F8510000206065C4F838A0E587A58779
:10298000C4F830B0E586A5862064606420680168DC
:10299000490603D4016841F040010160E068B0F5E8
:1029A000006F606805D0E8B3012D46D07FE00127B5
:1029B00095E008B1012D39D1206B21680088C860ED
:1029C000206B801C2063E08E401EE0862EE0206895
:1029D000816889070FD5E18E69B1B9F1010F0AD17C
:1029E000216B0988C160206B801C2063E08E401E33
:1029F000E0864FF0000920688168C9070CD0E18F9C
:102A000051B1C068A16B0880A06B801CA063E08FEF
:102A1000401EE0874FF00109FFF7ACF9A0EB08007A
:102A2000B04200E009E001D3701C50D1E08E0028D4
:102A3000CDD1E08F0028CAD13FE0206B216800781B
:102A40000873206B401C2063E08E401EE0862EE061
:102A50002068816889070FD5E18E69B1B9F1010F4E
:102A60000AD1216B09780173206B401C2063E08E32
:102A7000401EE0864FF0000920688168C9070CD02D
:102A8000E18F51B1C068A16B0870A06B401CA063BE
:102A9000E08F401EE0874FF00109FFF76BF9A0EBD4
:102AA0000800B04202D3701C01D010E07EB1E08E6D
:102AB0000028CDD1E08F0028CAD1424631462046B9
:102AC00001F0E4F828B101272020606507E0032722
:102AD00005E0A06818B92068C168806800900120EE
:102AE00084F85100002084F8500038462CE77047E5
:102AF000704710B590F83C20012A22D0012280F8BE
:102B00003C20CA688C6822F4407222434C6822F44C
:102B1000806222430C6822F4006222430C6922F492
:102B2000805222434C6922F400522243C969002397
:102B300022F480420A4301684A6480F83C30002055
:102B400010BD022010BD000070B590F83C20012A95
:102B500032D0012480F83C40022280F83D200368F6
:102B60005A689D6822F070060A6832435A60134B17
:102B700002689A4214D0B2F1804F11D0104B9A42A1
:102B80000ED0104B9A420BD00F4B9A4208D00F4BED
:102B90009A4205D00E4B9A4202D00E4B9A4204D173
:102BA000496825F080031943916080F83D40002179
:102BB00080F83C10084670BD022070BD0000014046
:102BC0000004004000080040000C004000040140E8
:102BD000004001400018004010B5040003D094F8F4
:102BE0003D0010B107E0012010BD002084F83C003A
:102BF000204600F01FF8022084F83D00211D2068C7
:102C000001F074FA012084F8460084F83E0084F84C
:102C10003F0084F8400084F8410084F8420084F8C2
:102C2000430084F8440084F8450084F83D00002007
:102C300010BD000008B500680C49884208D10C4856
:102C4000016841F001010160006800F001000BE043
:102C50000849884209D10648001F016841F0020175
:102C60000160006800F00200009008BD0000014013
:102C7000443802400004004090F83D10012901D082
:102C800001207047022180F83D100168CA6842F0B7
:102C90000102CA6000681149884214D0B0F1804F27
:102CA00011D00F4988420ED00E4988420BD00E49F0
:102CB000884208D00D49884205D00D49884202D08B
:102CC0000C49884204D1816801F00701062903D02C
:102CD000016841F0010101600020704700000140DF
:102CE0000004004000080040000C004000040140C7
:102CF000004001400018004070B5044690F83C00C8
:102D00000025012817D0012684F83C60022084F8B1
:102D10003D002068826822F0770222F47F428260C0
:102D20000868502838D00DDC20284FD005DC90B33F
:102D3000102811D14AE0022070BD302846D040282A
:102D40000AD13BE060282FD070280DD0B0F5805F0D
:102D500003D0B0F5005F12D0012584F83D6000205B
:102D600084F83C00284670BDCB68D1E90121206879
:102D700001F02DFA2068816841F0770109E0CB6805
:102D8000D1E90121206801F022FA2068816841F42C
:102D900080418160E1E719E0CA684968206801F074
:102DA000EBFA5021206806E0CA684968206801F003
:102DB000F4FA6021206801F014FACEE7CA68496885
:102DC000206801F0D9FA40212068F4E72268014622
:102DD0001046F0E7704770B50446006801694FF08F
:102DE0000005C943890715D4C168C943890711D4AF
:102DF000E91E016101202077206880698007204654
:102E000002D0FFF7E7FF04E000F0DAF8204600F018
:102E10006CF9257720680169C943490717D4C1684F
:102E2000C943490713D46FF00401016102202077E0
:102E30002068806910F4407F204602D0FFF7CAFF67
:102E400004E000F0BDF8204600F04FF92577206837
:102E50000169C943090716D4C168C943090712D4D7
:102E60006FF008010161042020772068C0698007A5
:102E7000204602D0FFF7AEFF04E000F0A1F82046A4
:102E800000F033F9257720680169C943C90617D4D2
:102E9000C168C943C90613D46FF01001016108204D
:102EA00020772068C06910F4407F204602D0FFF7E9
:102EB00091FF04E000F084F8204600F016F9257731
:102EC00020680169C943C90708D1C168C943C90756
:102ED00004D1891E0161204600F06CF92068016967
:102EE000C943090609D4C168C943090605D46FF06E
:102EF000800101612046FFF7FAFD20680169C9439E
:102F0000490609D4C168C943490605D46FF0400198
:102F10000161204600F055F920680169C94389061E
:102F20000BD4C168C943890607D46FF02001016141
:102F30002046BDE87040FFF7DBBD70BD10B586B020
:102F4000044614216846FDF7F9F92368174C00215F
:102F500017480222A34212D1036843F00103036021
:102F6000006800F0010005904FF4E0600090CDE9AA
:102F700001210120CDE9031069460E4812E00E4CF4
:102F8000A34211D1036843F002030360006800F01C
:102F90000200059020200090CDE90121CDE9031227
:102FA00069460648FEF7C6FD06B010BD00000140A8
:102FB000303802400000024000040040000402409B
:102FC000704770B5044690F83C0000260D46012875
:102FD0000FD0012084F83C006AB1042A1DD0082AD1
:102FE0002FD00C2A3FD00126002084F83C00304628
:102FF00070BD022070BD206801F0FCF82068816976
:1030000041F0080181612068816921F0040181613A
:10301000206881692A69114311E0206801F01AF9DA
:103020002068816941F4006181612068816921F42F
:1030300080618161206881692A6941EA0221816198
:10304000D2E7206801F03CF92068C16941F008012D
:10305000C1612068C16921F00401C1612068C169B2
:103060002A69114311E0206801F05EF92068C16906
:1030700041F40061C1612068C16921F48061C161CE
:103080002068C1692A6941EA0221C161ACE710B533
:10309000040003D094F83D0010B107E0012010BDFA
:1030A000002084F83C00204600F01EF8022084F83E
:1030B0003D00211D206801F019F8012084F8460028
:1030C00084F83E0084F83F0084F8400084F8410012
:1030D00084F8420084F8430084F8440084F84500F2
:1030E00084F83D00002010BD7047704710B50446BD
:1030F000022249B104290ED0082913D094F84100C6
:10310000012816D0012010BD94F83E000128F9D105
:1031100084F83E200FE094F83F000128F2D184F8B3
:103120003F2008E094F840000128EBD184F84020CB
:1031300001E084F841200122206801F03BF81649A3
:103140002068164A884201D0904203D1436C43F470
:10315000004343642068884213D0B0F1804F10D000
:103160000F4988420DD00F4988420AD00E49884243
:1031700007D0904205D00D49884202D00C498842C0
:1031800004D1816801F00701062903D0016841F0EC
:1031900001010160002010BD000001400004014059
:1031A0000004004000080040000C004000400140C6
:1031B000001800400068B0F1804F01D1FEF756BF03
:1031C0007047704770477047F8B501680446086853
:1031D000CA684B6910F00F0F4FF0000559D003F08B
:1031E000010602F49077374365D0C10705D0D105B9
:1031F00003D5216C41F001012164410705D5D907B0
:1032000003D0216C41F002012164810705D5D90763
:1032100003D0216C41F004012164010707D502F0BD
:103220002001314303D0216C41F008012164216C5D
:1032300000293AD0800604D5900602D5204601F038
:1032400083F920684069216CC0F38010090700D41D
:1032500060B3204601F043F920684069400621D55B
:103260002068143050E8001F21F0400140E80012AF
:10327000002AF5D1A06BA8B16C490165A06BFEF7DF
:1032800093FA002811D0A06B016D01B0BDE8F040A9
:10329000084783060FD593060DD52046BDE8F840B4
:1032A00001F052B92046FFF78EFFF8BD2046FFF728
:1032B0008AFF2564F8BD266B2023012E79D1C6062E
:1032C00077D5D60675D508684868009048694006E5
:1032D00040D5A16B086840680004000CEAD0A28DBC
:1032E0008242E7D9E085C869B0F5807F2DD020689B
:1032F0000C3050E8001F21F4807140E80012002AD1
:10330000F5D12068143050E8001F21F0010140E899
:103310000012002AF5D12068143050E8001F21F077
:10332000400140E80012002AF5D184F83E302563C0
:1033300020680C3050E8001F21F0100140E8001216
:10334000002AF5D1A06BFEF7E6F9A08DE18D401AB9
:1033500081B229E0A08DE18D401A81B2E08D002874
:10336000A8D00029A6D020680C3050E8002F22F405
:10337000907240E80026002EF5D12068143050E805
:10338000002F22F0010240E80026002EF5D184F83B
:103390003E30256320680C3050E8002F22F01002E8
:1033A00040E80023002BF5D12046FFF70BFFF8BDC6
:1033B000FFE705062BD5150629D594F83D002128F1
:1033C000F5D1A068B0F5805F01D12069B0B1206A65
:1033D000411C2162216800784860E08C401E000496
:1033E000000CE084E3D12068C16821F08001C16055
:1033F0002068C16841F04001C160D8E7206A0088B8
:10340000C0F308004860206A801C2062E5E740069F
:10341000CDD55006CBD5CA68204622F04002CA60FE
:1034200084F83D3000F027F9C1E70000E9430008C7
:1034300070B5040004D094F83D00002510B106E0FA
:10344000012070BD84F83C50204600F023F8242071
:1034500084F83D002068C16821F40051C160204615
:1034600001F0D2F82068016921F4904101612068DF
:10347000416921F02A0141612068C16841F400518D
:10348000C1602564202084F83D0084F83E000020BF
:1034900070BD00002DE9F04F87B006461421684644
:1034A000FCF74CFF5F485E49D6F800C000240322B9
:1034B0000223082507154FF0206A4FF480798C45C8
:1034C0003CD158491031D1F800C04CF0004CC1F843
:1034D00000C0096801F000410591016841F0100148
:1034E000016000688DE81C0000F01000CDE9045078
:1034F000694603924C48FEF71DFB4D4D4B48286032
:10350000C5E901A4C5E903476C61C5E906494FF463
:103510004030C5E908042846FEF728FA08B1FDF74F
:1035200097FBB563002205215320AE63FEF724FE0E
:103530005320FEF713FE07B0BDE8F08F3949DFF8DE
:10354000F48014314FF4003BC44531D10D6845F08F
:1035500010050D60096801F010010591016841F046
:10356000020101600068694600F002000590C02079
:103570008DE819000720CDE903202F48FEF7DAFA7D
:103580002B4D2E48603505F1180828604FF000607B
:10359000C5E90104C5E903476C6188E8100A2846BB
:1035A0006C62FEF7E3F908B1FDF752FBB56335E055
:1035B000DFF88C80C445BED1D1F800C04CF0200C9F
:1035C000C1F800C0096801F020010591016841F0CF
:1035D000400101600068694600F0400005904FF42A
:1035E00084408DE81900CDE903251648FEF7A2FABC
:1035F0000F4D1248C0356030E5E8020A402091C501
:103600000B4845F81449C030AC61C5E9074B6C6202
:10361000FEF7ACF908B1FDF71BFB7563AE638AE7F3
:10362000007C00403038024000100240A0600240A0
:10363000200B0020001001400004024040640240C2
:10364000001401400018024090F83E30202B0ED1AB
:1036500059B152B190F83C30012B08D0012380F8C9
:103660003C300023036301F055B80120704702206D
:103670007047704770477047FEE700007FB5002431
:103680001A4800940194029417490394016001259B
:103690004FF480310561C0E90114057680F82040BF
:1036A0001349C0E90A140226C661C46080F830409C
:1036B0004561FDF781FB08B1FDF7CAFA8DE870009E
:1036C00069460A48FDF7C6FA08B1FDF7C1FA0320BA
:1036D0000095CDE9016069460448FDF7BBFA002872
:1036E00001D0FDF7B5FA7FBD00200140CC070020D6
:1036F0000100000F10B5002211461420FEF73CFD1A
:103700001420FEF72BFD1248FDF749FD0221104859
:10371000FDF7CAFB0E480F494FF420220160032138
:10372000416000218160C0E903124FF40012426140
:103730000176012242768176C17601774177FDF7E5
:103740002CFE002803D0BDE81040FDF781BA10BD63
:10375000740800200064004010B51048FDF71FFDFC
:103760000E480F494FF420220160032141600021DF
:103770008160C0E903124FF4001242610176012218
:1037800042768176C17601774177FDF706FE002803
:1037900003D0BDE81040FDF75BBA10BD9C080020C7
:1037A00000680040194808B5016841F480010160D3
:1037B000016801F480010091016841F40011016089
:1037C0000068002200F40010009005211120FEF78F
:1037D000D3FC1120FEF7C2FC002205213820FEF7A1
:1037E000CBFC3820FEF7BAFC002205213A20FEF778
:1037F000C3FC3A20FEF7B2FC002205214520FEF76B
:10380000BBFCBDE808404520FEF7A8BC30380240AC
:1038100010B59CB01C2216496846FCF776FD0021C5
:10382000684603F0BAFA134C11491C2260601C313F
:1038300007A8FCF76AFD002107A803F0AEFA0C49BF
:10384000A0601C2238310EA8FCF75FFD00210EA8F5
:1038500003F0A3FA0649E0601C22543115A8FCF7D6
:1038600054FD002115A803F098FA20611CB010BD8A
:10387000C08300086002002030B587B0142168467C
:10388000FCF75CFD2E480024016841F01001016046
:10389000016801F010010591016841F00201016029
:1038A000016801F002010591016841F040010160E9
:1038B000016801F040010591016841F001010160DA
:1038C000016801F001010591016841F00801016002
:1038D000016801F008010591016841F020010160D3
:1038E000016801F020010591016841F004010160C7
:1038F000016801F004010591016841F08001016057
:103900000068104D00F08000059000220421284638
:10391000FEF72AFA082000904FF48810CDE9010440
:1039200069462846FEF706F9042000900120CDE9FB
:103930000104694628460394FEF7FCF807B030BD41
:103940003038024000100240144810B5124901609E
:103950001349416000214FF480428160C0E90312A5
:1039600041618161C1610162FEF74AFA08B1FDF768
:103970006FF900210948FEF703FA08B1FDF768F96D
:1039800000210648FEF71DFA002803D0BDE81040CC
:10399000FDF75EB910BD000000580040C4080020CB
:1039A000801A0600144810B512490160134941609D
:1039B00000214FF480428160C0E9031241618161BE
:1039C000C1610162FEF71CFA08B1FDF741F900215F
:1039D0000948FEF7D5F908B1FDF73AF90021064884
:1039E000FEF7EFF9002803D0BDE81040FDF730B92D
:1039F00010BD0000005C004018090020801A06007D
:103A0000104810B50E4901604FF4827141600021E9
:103A100002228160C0E903120122426152028261E6
:103A20003822C0E90721416281620A21C162FEF7A2
:103A3000CFFE002803D0BDE81040FDF709B910BD46
:103A4000005001406C09002010B596B000240F947E
:103A500010941194129413941C2168461494FCF74A
:103A60006DFC202107A8FCF769FC30482E49016055
:103A7000B321C0E901144FF4FA61C0E903144461B1
:103A80008461FFF7A9F808B1FDF7E2F84FF4805020
:103A90000F900FA92548FFF72FF908B1FDF7D8F8C7
:103AA0002248FFF7F4FA08B1FDF7D2F8139413A9EE
:103AB0001E481494FFF748F808B1FDF7C9F86020D4
:103AC000CDE900040294039404940594002269460D
:103AD00016480694FFF775FA08B1FDF7B9F8042205
:103AE00069461248FFF76DFA08B1FDF7B1F80822F0
:103AF00069460E48FFF765FA08B1FDF7A9F8079483
:103B0000089409944FF400500A94CDE90B4007A99A
:103B100006480E94FEF7EDFF08B1FDF799F803484B
:103B2000FFF70CFA16B010BD00000140C4090020D8
:103B300010B58EB000240794089409940A940B944D
:103B40001C2168460C94FCF7F9FB1E481C490160D7
:103B5000B321C0E901144FF4FA61C0E90314846190
:103B6000FFF73AF808B1FDF773F84FF4805007906B
:103B700007A91448FFF7C0F808B1FDF769F8114824
:103B8000FFF785FA08B1FDF763F80B940BA90D4810
:103B90000C94FEF7D9FF08B1FDF75AF86020CDE983
:103BA000000402940422694606480494FFF709FAC7
:103BB00008B1FDF74DF80348FFF7C0F90EB010BD8E
:103BC000000400400C0A00200C4810B50A490160AE
:103BD0004FF4E1314160002181600C22C160C0E9F5
:103BE00004128161C161FFF723FC002803D0BDE806
:103BF0001040FDF72DB810BD007C0040540A002095
:103C000010B5012211462520FEF7B6FA2520FEF751
:103C1000A5FA0D480B494FF4806201600B494160E1
:103C200000218160C0E903120C22C0E90521C161B5
:103C3000FFF7FEFB002803D0BDE81040FDF708B8F1
:103C400010BD000000100140980A0020A08601006D
:103C50000C4810B50A4901604FF4E1314160002180
:103C600081600C22C160C0E904128161C161FFF76B
:103C7000DFFB002803D0BDE81040FCF7E9BF10BD12
:103C800000140140DC0A0020FEE7FEE738B50446D8
:103C90001248134B0068B0FBF3F04FF47A735843AB
:103CA00000906068B0F5827F0DD10B460092002233
:103CB0008021204600F016F870B1606D40F02000C1
:103CC0006065032038BD009830B1401E0090206828
:103CD0008068C0430006F6D5002038BD8802002069
:103CE00000366E012DE9F8431E469146884604468B
:103CF000089DFEF73FF8401B351AFEF73BF80746D4
:103D000025480068C0F3CB30684338E0701C37D0DA
:103D1000FEF730F8C01BA84203D215B1009860B37B
:103D20002CE02068416821F0E00141606068B0F556
:103D3000827F0BD1A068B0F5004F02D0B0F5806F44
:103D400004D12068016821F040010160A06AB0F54B
:103D5000005F09D12068016821F4005101602068EA
:103D6000016841F400510160012084F851000020F5
:103D700084F850000320BDE8F8830025401E009021
:103D80002068816838EA010004D000214945BDD18E
:103D90000020F0E70121F9E788020020012002F06D
:103DA000EFFFFBE72DED068B9FED268ADFED268AE0
:103DB0009FED269A264C274DDFED279A9FED27AAE7
:103DC000DFED27AA274E284FDFF8A080DFF8A0906C
:103DD0000120FDF78FFEB0EE481AF0EE680AB0EE53
:103DE000490A02F037F894ED000AB0EE691AF0EED5
:103DF0004A0AB8EEC02A95ED000AF8EEC01AB0EEF5
:103E00006A0A03F05BF896ED000ABDEEC00A10EEF8
:103E1000100A97ED000A03B2BDEEC00A10EE100AB8
:103E200098ED000A02B2BDEEC00A10EE100A99ED3C
:103E3000000A01B2BDEEC00A10EE100A00B201F095
:103E4000E9FEC5E7000000000AD7233C00007F43DD
:103E500044000020480000207F6A3C3DA69B443D72
:103E600000004842D0000020CC000020C800002004
:103E7000C40000202DED068B42F21070FDF73AFED3
:103E8000404C4FF4FA702168486321688863DFF87A
:103E9000F890DFED3EAADFF8F8B03E4E3E4F3F4DC2
:103EA0009FED3F9BDFF800A140F21E58BFEE04AA31
:103EB0000120FDF71FFE2168C1F834802168C1F898
:103EC000388099F8061046291AD099F80000B8B140
:103ED00004F08CF9DFED352A9FED352ADFED351A38
:103EE0009FED351ADFED350AB0EE6A0A04F0BCF931
:103EF0009FED330A012186ED080A87ED080A18E0D4
:103F00000020286004F006F92E4890ED000B51ECDB
:103F1000100BFCF719FC01EE900A2B489FED2B1AB1
:103F2000DFED2B0A90ED0C2AB0EE6A0A01F0EAFEF2
:103F30000221CBF80010306AFCF7C3FB41EC180BF0
:103F40002868FCF78EFB53EC192BFCF7A9FA53EC0D
:103F5000182BFCF79FFAFCF795FB9AED000AD7EDBA
:103F6000080A0023B8EEC00A00B21A4630EE800AF2
:103F700020EE0A0ABDEEC00A10EE101A09B201F0D6
:103F800073FE95E7C4090020D60300200000964385
:103F9000600200203C04002030050020BC0100200D
:103FA000666666666666F23FB801002000605145AD
:103FB000002019450AD7233E0000F0439A99193E84
:103FC0000000000070010020840400200000FA447A
:103FD000CDCCCC3E0320FDF78DFD094C002520689B
:103FE000012809D000231A461946184603F0D8FCC8
:103FF0000120FDF77FFDF2E701F084FD2560F7E782
:104000006002002010B5502080F31188BFF34F8F5D
:10401000BFF36F8F03F0AEFF18B104494FF080502B
:104020000860002080F3118810BD000004ED00E05E
:1040300030B593B030216846FCF780F914210CA804
:10404000FCF77CF920480025016841F080510160AF
:10405000006800F0805011901C48016841F4404114
:1040600001600068022400F440401190012000909B
:10407000000401908001CDE9064006200890B4209C
:10408000CDE9090404200B906846FEF7EBF908B16E
:1040900072B6FEE7FEF7A2F808B172B6FEE70CA909
:1040A0000F2081E831004FF4A0500F904FF4805062
:1040B000109005210CA8FEF7C9F8002801D072B6AF
:1040C000FEE713B030BD00004038024000700040F1
:1040D0000248016841F470010160704788ED00E01A
:1040E0000148FEF778BE0000400C0020F0B50268E1
:1040F000254C264D264E274F274B4FF0804CA04293
:1041000009D0604507D0A84205D0B04203D0B842DC
:1041100001D0984204D122F0700E4A6842EA0E02A1
:10412000A0421BD0604519D0A84217D0B04215D08C
:10413000B84213D0984211D0184DA8420ED0184D55
:10414000A8420BD0174DA84208D0174DA84205D061
:10415000164DA84202D0164DA84203D122F4407554
:10416000CA682A434D6922F080022A4302608A68A5
:10417000C2620A688262A04201D0984201D10969F4
:10418000016301214161F0BD0000014000040040D5
:1041900000080040000C00400004014000400140C5
:1041A000004401400048014000180040001C00404D
:1041B0000020004010B501F01F030121046A99405E
:1041C0008C430462016A9A401143016210BD10B52C
:1041D000846842EA032224F47F440A432243826033
:1041E00010BD826822F070020A4342F0070181602C
:1041F00070470000F0B5026A22F001020262036A11
:1042000042688469124E24F073050C682C4323F035
:1042100002058B682B430D4DA84201D0B04205D159
:1042200023F00807CB683B4323F00403A84201D0E6
:10423000B04205D14D6922F4407215438A692A4380
:1042400042608461496841630362F0BD000001403F
:1042500000040140F0B5026A22F010020262026A14
:10426000436884690D6824F4E64444EA05248D68B3
:1042700022F0200242EA05120F4D104EA84201D052
:10428000B04206D1CF6822F0800242EA071222F043
:104290004002A84201D0B04207D14D6923F44063E7
:1042A00043EA85038D6943EA850343608461496875
:1042B00081630262F0BD0000000001400004014083
:1042C000F0B5026A22F480720262026A4368C4692D
:1042D00022F4007224F073050C68124E2C438D6892
:1042E00042EA05220E4DA84201D0B04206D1CF6865
:1042F00022F4006242EA072222F48062A84201D03E
:10430000B04207D14D6923F4405343EA05138D6948
:1043100043EA05134360C4614968C1630262F0BDAA
:10432000000001400004014030B5026A22F48052CE
:104330000262046A4268C3690D6823F4E64343EAF3
:1043400005238D6824F4005444EA0534084DA8423E
:1043500002D0084DA84204D14D6922F4804242EABD
:1043600085124260C36149680164046230BD000087
:10437000000001400004014010B5036A046A24F003
:1043800001040462846924F0F00444EA021423F076
:104390000A020A438461026210BD10B5036A23F069
:1043A000100303628369046A23F4704343EA023210
:1043B00024F0A00343EA01118261016210BD0000F4
:1043C00010B50648FEF700FF05480649007808606A
:1043D000BDE81040024800F0FBB90000540A00207C
:1043E000D60300207802002010B5806B0021C18523
:1043F000C184FEF7E8FE10BD70B5846B206840698B
:1044000094F83D10C0F3C0100025212904D118B143
:10441000E584204600F08AF82068406994F83E1050
:10442000C0F38010222904D118B1E585204600F0A0
:1044300056F8206C40F0100020642046FEF7C3FEC2
:1044400070BD10B50146806B09680968C9052FD495
:104450000021C18501680C3151E8002F22F48072DF
:1044600041E80023002BF5D10168143151E8002FF9
:1044700022F0010241E80023002BF5D1016814313C
:1044800051E8002F22F0400241E80023002BF5D133
:10449000202180F83E10016B012909D101680C31FF
:1044A00051E8002F22F0100241E80023002BF5D143
:1044B000016B012902D0FFF7DCF810BD818DFEF7FA
:1044C00081FE10BD10B5806B016B012902D0FFF792
:1044D000D1F810BD818D4908FEF774FE10BD01684A
:1044E0000C3151E8002F22F4907241E80023002B98
:1044F000F5D10168143151E8002F22F0010241E8A2
:104500000023002BF5D1016B012909D101680C3181
:1045100051E8002F22F0100241E80023002BF5D1D2
:10452000202180F83E1000210163704701680C31A2
:1045300051E8002F22F0C00241E80023002BF5D102
:10454000202180F83D10704708B590F83E102229D0
:1045500001D0022008BD82684FF480539A4201D1F5
:10456000016921B1816A9A421BD04AB10AE002680E
:10457000816A5268C2F308020A80816A891C08E0D5
:10458000026972B10268526802F07F020A70816AA1
:10459000491C8162C18D491E0904090CC18503D0E3
:1045A00019E002685268F1E70168CA6822F0200247
:1045B000CA600168CA6822F48072CA6001684A69E8
:1045C00022F001024A61202180F83E10016B01298E
:1045D00003D0FFF74EF8002008BD002101630168F9
:1045E0000C3151E8002F22F0100241E80023002B8B
:1045F000F5D101680A68D20602D50A6849680091B7
:10460000818DFEF7DFFDE6E770B5044600680169BD
:10461000E26821F44051114301612169A068E26917
:1046200008436169114308432168CA6849F20C6371
:104630009A430243CA6020684169A26921F440712B
:104640001143416131492068884202D03049884293
:1046500002D1FDF7C5FE01E0FDF7B2FEE2690023DD
:10466000192164253226B2F5004F626828D0A0FBDC
:104670000101930F9200FBF717FE0146B0FBF5F026
:104680006FF01802504301EB800006EB0010B0FB06
:10469000F5F000F0F002B1FBF5F002EB0012B1FB17
:1046A000F5F06FF01803584301EB800006EB0010A3
:1046B000B0FBF5F000F00F0021681044886070BD79
:1046C000A0FB010192185B41FBF7EEFD0146B0FB38
:1046D000F5F00201B1FBF5F06FF01803584301EB60
:1046E000800006EBC000B0FBF5F000F0F80002EB34
:1046F0004002B1FBF5F0584301EB800006EBC0002F
:10470000B0FBF5F000F00700D6E700000010014014
:104710000014014038B581628285002513460446A5
:104720000564222084F83E00A26B1C48D063A26B73
:104730001B481064A26B1B48D064A06B0A46056539
:104740002168A06B091DFDF79EF92068016840688B
:10475000009084F83C50206948B120680C3050E843
:10476000001F41F4807140E80012002AF5D1206852
:10477000143050E8001F41F0010140E80012002A07
:10478000F5D12068143050E8001F41F0400140E8A6
:104790000012002AF5D1002038BD00004344000873
:1047A000C5440008F943000810B5044803F058F95F
:1047B000BDE810400148FEF707BD0000980A002040
:1047C0000148FEF701BD0000DC0A0020FEE7000002
:1047D000024902680A604068486070471001002082
:1047E00003B401984100009850EAC12018BF04208A
:1047F0004A0D18BF40F0010040F2FF72B2EB515F6A
:1048000008BF40F00200012808BF052002B0704731
:104810000907090E002804DB00F1E02080F80014ED
:10482000704700F00F0000F1E02080F8141D704781
:1048300070B5C1482DED020B2DED0E8B82B0119D90
:1048400025F000449FEDBEDB9FEDBFEB84423EDBD5
:10485000A4F140511098A1F17F6108430FD0BC48EA
:10486000844202DC28D1109830B39DED100B02B0C9
:10487000BDEC0E8B02B0BDE8704001F0F1B89DEDCB
:10488000100B53EC1D2B51EC100BFBF709FE9DEDAB
:10489000100B41EC180B53EC1E2B51EC100BFBF7DB
:1048A000FFFD53EC182BFBF754FD41EC100B02B04D
:1048B000BDEC0E8B02B070BD012001F015F902B005
:1048C000BDEC0E8B02B0BDE8704001F0DDB8A14830
:1048D0009FEDA18B844256DA9DED100BB4F1795F08
:1048E0000ADA51EC100BFFF77BFF042808BF01F038
:1048F000DBF89DED100BDAE753EC102B51EC100BAD
:10490000FBF7CEFD41EC190B95480621B0EE490AA4
:10491000F0EE690A784400F08FFF53EC192B51EC4C
:10492000100BFBF7BDFD41EC1A0B8E48B0EE490AA7
:10493000F0EE690A0421784400F07EFF53EC192B55
:1049400051EC100BFBF7ACFD53EC182BFBF701FD02
:1049500041EC100B51EC1A0B53EC102BFBF712FE31
:10496000CDE900019DED000B53EC102B9DED100BDC
:1049700051EC100BFBF794FD9DED101B53EC112B2C
:10498000FBF7E7FCD2E09DED100B51EC100B01F0B2
:1049900055FA53EC182BFBF780FD9FED730BCDE917
:1049A000000153EC102B9DED000B51EC100BFBF7AD
:1049B00077FD41EC190B6E480621B0EE490AF0EE86
:1049C000690A784400F038FF53EC192B51EC100BB6
:1049D000FBF766FD41EC1B0B6648B0EE490AF0EEB2
:1049E000690A0421784400F027FF53EC192B51EC9D
:1049F000100BFBF755FD53EC182BFBF7AAFC41EC11
:104A00001C0B51EC190B02F0F3FF41EC180B5A4848
:104A10009FED5BABA04222DC53EC1C2B51EC1B0B3B
:104A2000FBF7B0FDCDE900019DED000B51EC180B3B
:104A300053EC102BFBF734FD53EC182BFBF789FCE0
:104A400053EC1A2BFBF72CFD53EC1D2BFBF722FD2F
:104A500053EC1E2BFBF721FD41EC100B5FE08DEDBD
:104A6000008B002000909DED000B51EC180B53ECD7
:104A7000102BFBF76EFC9DED000B41EC1E0B53EC75
:104A8000102B51EC100BFBF70BFD53EC192BFBF724
:104A900004FD53EC1E2BFBF775FD41EC190B53EC99
:104AA0001C2B51EC1B0BFBF76DFD41EC1B0B53EC6E
:104AB0001A2B51EC190BFBF7F3FC53EC1D2BFBF7F6
:104AC000ECFC41EC190B53EC1A2B51EC180BFBF7D7
:104AD000E7FC53EC1B2BFBF7E3FC53EC192BFBF728
:104AE000D9FC9DED000B41EC180B53EC1A2B51EC4B
:104AF000100BFBF7D5FC9FED249B53EC192BFBF718
:104B0000CCFC41EC100B51EC180B53EC102BFBF7C9
:104B1000C1FC53EC192BFBF7C0FC41EC100B002D32
:104B20003FF7C5AE51EC100B81F0004141EC100B8A
:104B3000BDE60000000000000000F03F00000000A3
:104B4000075C143326A6913C182D4454FB21F93FF1
:104B50000000F07F0000E03F000000000000F03F98
:104B6000383B0000463B0000000000000000E03F32
:104B70008A3A0000983A00003333EF3F000000000B
:104B80000000000000000040182D4454FB21E93FC4
:104B900070B59B482DED020B2DED068B079D25F082
:104BA0000044A04218DC9748844202DC0AD10698EF
:104BB00040B19DED060BBDEC068B02B0BDE8704028
:104BC00000F04EBF002DCCBF9FED8F0B9FED900BE3
:104BD000BDEC068B02B070BD8F48A04215DD8F483A
:104BE000A042D8BF4FF0FF3458DD9DED060B51ECCD
:104BF000100BFFF7F5FD042808BF00F055FF9DEDF1
:104C0000060BBDEC068B02B070BD9DED060B51ECA2
:104C1000100B01F013F9CDE9060181489FED828B5D
:104C2000A0423CDD8248A0421FDD00249FED82AB04
:104C30009DED060B53EC1A2B51EC100BFBF789FB87
:104C40009DED060B41EC190B53EC1A2B51EC100B9C
:104C5000FBF726FC53EC182BFBF71CFC53EC192B31
:104C6000FBF790FCCDE9060149E09DED060B012420
:104C700053EC182B51EC100BFBF76BFB9DED060B67
:104C800041EC190B53EC182B51EC100BFBF702FC09
:104C900053EC192BFBF776FCCDE906012FE06848B1
:104CA000A0421FDD02249FED689B9DED060B53EC97
:104CB000192B51EC100BFBF7F3FB53EC182BFBF704
:104CC00048FB9DED060B41EC180B53EC192B51ECF6
:104CD000100BFBF7DFFB53EC182BFBF753FCCDE974
:104CE00006010CE09DED060B032453EC102B9FED09
:104CF000580B51EC100BFBF745FCCDE906019DED7F
:104D0000060B53EC102B51EC100BFBF7C9FB41ECDD
:104D1000180B53EC182BFBF7C3FB41EC190B4E4857
:104D20000621B0EE490AF0EE690A784400F084FDED
:104D300053EC182B51EC100BFBF7B2FB41EC180BAA
:104D40004648B0EE490AF0EE690A0521784400F0C1
:104D500073FD53EC192B51EC100BFBF7A1FB41EC4D
:104D6000100B51EC180B53EC102B002C0EDAFBF748
:104D7000F0FA9DED061B53EC112BFBF791FB9DED1B
:104D8000061B53EC112BFBF788FB35E0FBF7E1FA30
:104D90009DED061B53EC112BFBF782FB41EC100B36
:104DA0002F48784400EBC40090ED001B51EC100B31
:104DB00053EC112BFBF76EFB9DED061B53EC112BF7
:104DC000FBF768FB41EC100B2648784400EBC4006D
:104DD00090ED001B51EC100B53EC112BFBF75DFB1E
:104DE00041EC100B002DA2BFBDEC068B02B070BDD4
:104DF00051EC100B81F0004141EC100B01E7000079
:104E0000000010440000F07F182D4454FB21F93FAE
:104E1000182D4454FB21F9BF0000DC3F0000203E68
:104E20000000F33F00000000000000000000F03F21
:104E30000000E63F0000000000000000000000400D
:104E40000080034000000000000000000000F83F68
:104E5000000000000000F0BFDA37000090370000CB
:104E60001A370000D236000070B56F4E2DED040BDE
:104E70002DED048B82B0DDF824C0DDE907235C4210
:104E80002CF000411C4341EAD474069D22F00040FE
:104E9000B44205D86C422C4340EAD474B4420BD9D6
:104EA0009DED081B9DED060B02B0BDEC048B04B01C
:104EB000BDE8704000F0DEBDACF14054A4F17F6469
:104EC0001C430BD0022404EAAC7444EAD2740543B8
:104ED0009FED578B9FED582B07D015E09DED060BEE
:104EE00051EC100B00F006FE42E0002C11BF012C2B
:104EF0009DED060B02B0BDEC048B04BF04B070BD89
:104F0000022C38D0032C3BD00B439FED4D1B9FED63
:104F10004E0B0AD0B14218D1B04209D121F08041E4
:104F200020F08040099107900FE0002A15DA10E088
:104F3000474B7B44002C08BF93ED000B0DD0012C98
:104F400010D0022C17D0032C1AD0B0421DD1002A49
:104F500003DAB0EE410AF0EE610A02B0BDEC048B58
:104F600004B070BD93ED000B51EC100B81F00041CB
:104F700041EC100BF1E7B0EE480AF0EE680AECE7FE
:104F8000B0EE420AF0EE620AE7E7401A00159FED24
:104F9000329B3C28C8BF8DED000B17DCBCF1000F25
:104FA000BCBF10F13C0F8DED009B0FDB9DED080B9E
:104FB00053EC102B9DED060B51EC100BFBF7E2FAB6
:104FC00000F03CFF00F096FDCDE90001B4B1012CEA
:104FD00010D0022C9FED220B53EC102B9DED000BFB
:104FE00051EC100B19D0FBF755FA53EC182BFBF7CB
:104FF00051FABDE7019880F0004001909DED000B53
:1050000053EC192B51EC100BFBF76EFB04BF022085
:1050100000F06AFD9DED000B9FE7FBF73BFA53ECB8
:10502000182BFBF73AFAA3E70000F07F000000001E
:10503000182D4454FB210940182D4454FB2109C06C
:10504000182D4454FB21F9BF182D4454FB21F93F7E
:1050500032360000000000000000000000000000E8
:10506000075C143326A6A13C10B52F499FED2C1BDD
:105070002DED020B84B0059820F000408842D8BF87
:105080009DED040B2DDD2949884209D1049840B9D2
:105090004FF0010000F028FD00F0F6FC06B010BD56
:1050A00005DB9DED040B00F0DBFC06B010BD68468F
:1050B0009DED040B00F0ECF810F0030004BF9DED33
:1050C000021B9DED000B0CD001280ED09DED021BA4
:1050D0009DED000B022817D0012000F029FC06B03E
:1050E00010BD00F0F1FA06B010BD9DED021B9DED64
:1050F000000B012000F01CFC51EC100B81F0004172
:1051000006B041EC100B10BD00F0DEFA51EC100BB4
:1051100081F0004106B041EC100B10BD0000000012
:105120000000000000000000FB21E93F0000F07FCC
:105130002DED020B019820F0004001909DED000B39
:1051400002B070470000000010B52F499FED2C1BE6
:105150002DED020B84B0059820F000408842DCBFA2
:1051600000209DED040B32DD2849884209D10498C6
:1051700040B94FF0010000F0B7FC00F085FC06B02C
:1051800010BD05DB9DED040B00F06AFC06B010BD00
:1051900068469DED040B00F07BF810F0030011D081
:1051A000012818D09DED021B9DED000B02281AD09E
:1051B00000F08AFA51EC100B81F0004106B041EC8E
:1051C000100B10BD9DED021B9DED000B012000F0AA
:1051D000AFFB06B010BD9DED021B9DED000B00F076
:1051E00073FA06B010BD012000F0A2FB51EC100BC9
:1051F00081F0004106B041EC100B10BD0000000032
:105200000000000000000000FB21E93F0000F07FEB
:1052100000B52DED048BB0EE409AF0EE609A83B0AD
:1052200051EC190BFBF771FB41EC180B18EE100A4F
:1052300018EE901A8DED008B002818BF012008434E
:1052400020F00040C0F17F6000F1E040C00F14D0BA
:1052500019EE101A19EE900A8DED009B002918BF67
:105260000121084320F00040C0F17F6000F1E040E0
:10527000C00F04BF012000F037FCB0EE480A03B0B5
:10528000F0EE680ABDEC048B00BD000000000000D9
:105290002DE9F14F04462DED020B2DED088B8AB060
:1052A0009FEDE70B80ED020B139EE74826F00045CB
:1052B00085420ADC9DED120B002084ED000B0AB044
:1052C000BDEC088B03B0BDE8F08FE0489FEDE0AB8C
:1052D0009FEDE1BBA84247DDE14F9FEDE39B9FEDD2
:1052E000E48B9DED120B53EC1A2B51EC100B002E9E
:1052F0001CDDFBF7CFF841EC100BBD4208D053EC9E
:105300001B2B51EC100BFBF7C5F8C4E900010BE0B7
:1053100053EC192B51EC100BFBF7BCF853EC182B8A
:10532000FBF7B8F8C4E900010120C8E7FBF711F862
:1053300041EC100BBD4208D053EC1B2B51EC100B71
:10534000FBF707F8C4E900010BE053EC192B51EC13
:10535000100BFAF7FEFF53EC182BFAF7FAFFC4E92B
:1053600000014FF0FF30AAE7C348A84279DB9DED6A
:10537000120B51EC100B00F061FD41EC180B9FED8E
:10538000C00B53EC102BFBF78BF89FEDBF1B53ECBE
:10539000112BFAF7DEFFFBF775F90746FBF761F90A
:1053A00041EC190B53EC1A2BFBF77AF853EC182B42
:1053B000FBF773F841EC180B53EC1B2B51EC190B5A
:1053C000FBF76EF8DFF8C8A241EC100B4FEA155856
:1053D0000125FA4453EC102B51EC180BFBF75AF84B
:1053E000032DC4E900013DD0C1F30A5005EB45117E
:1053F000A8EB00001139814234DA0AEB051BB0EE4C
:1054000048AA9BED000BF0EE68AA53EC102B51EC70
:10541000190BFBF745F841EC1B0B51EC1A0B53EC45
:105420001B2BFBF737F841EC180B51EC1A0B53EC24
:10543000182BFBF72FF853EC1B2BFBF72BF89BEDEE
:10544000020B41EC1A0B53EC102B51EC190BFBF730
:1054500027F853EC1A2BFBF71DF841EC100B6D1CD1
:10546000B8E70EE0002EA8BF3846BFF628AF94ED8F
:10547000000B51EC100B81F00041C4E900017842AF
:105480001DE7C6F3130040F4801EC6F30A50A0F2D5
:10549000F530471100F01F05C5F12000DDF848B0D8
:1054A00008900020069007900520EC467949002DD1
:1054B00007EB0002794408BF51F8221009D051F8D7
:1054C000223001EB8201AB404A68089922FA01F1CF
:1054D0001943A1FB0E26A1FB0B131A449A4234BFB9
:1054E0000123002303EB06080CEB8003D3E901A69C
:1054F0000E448E4234BF0121002192448A4411B1EE
:10550000924502D903E0924501D2012100E0002139
:10551000C3E901A641444CF82010011EA0F101008E
:10552000C4DC029800F10050850F0298DDE90367A2
:105530008000DDF81480FBF794F841EC1A0B30463C
:10554000FBF746FA9FED541B53EC112BFAF7A8FF1B
:1055500041EC1B0B3846FBF73BFA9FED511B53EC1C
:10556000112BFAF79DFF41EC180B4046FBF730FA80
:105570009FED4D1B53EC112BFAF792FF41EC190BE9
:1055800051EC180B53EC192BFAF7E3FE53EC1B2BE1
:10559000FAF7DFFE53EC1A2BFAF7DBFECDE9080130
:1055A000002008909DED080B53EC1A2B51EC100BCA
:1055B000FAF770FF53EC1B2BFAF76CFF53EC182B28
:1055C000FAF768FF53EC192BFAF767FF9FED381BCA
:1055D00053EC112BFAF764FF9FED370B41EC180BDE
:1055E00053EC102B9DED080B51EC100BFAF758FF04
:1055F00053EC182BFAF7ADFE9FED310B41EC180B75
:1056000053EC102B9DED080B51EC100BFAF748FFF3
:1056100053EC182BFAF79DFE41EC100B139810F089
:10562000004F06D06D4251EC100B81F0004141EC6F
:10563000100B284684ED000B41E60000000000003E
:105640000000000000000000FB21E93F7CD902407F
:1056500000004054FB21F93F3163621A61B4D03D30
:10566000FB21F93F000000000000601A61B4D03D4A
:105670007370032E8A19A33BFB21394100000000FF
:1056800083C8C96D305FE43F000000000000E03FC8
:105690009A310000E8300000000000000000103ED9
:1056A000000000000000103C000000000000103A64
:1056B000182D4454FB21F93D3326A611460B113C0D
:1056C00000000054FB21F93D10B52DED040B2DED2C
:1056D000088B82B0B0EE419AF0EE619A0B9820F000
:1056E00000449FED4BABB4F1795F11DA9DED0A0BED
:1056F00051EC100BFAF7C6FF002801BFB0EE4A0AC2
:10570000F0EE6A0A02B0BDEC088B04BF04B010BD15
:105710009DED0A0B53EC102B51EC100BFAF7C0FE69
:1057200041EC180B3C480621B0EE480AF0EE680A3E
:10573000784400F081F853EC182B51EC100BFAF779
:10574000AFFE9DED0A0B41EC1B0B53EC192B51ECFA
:10575000100BFAF7A5FE41EC190B53EC1B2B51EC87
:10576000180BFAF79DFE53EC192BFAF793FE9FEDF9
:105770002C0B41EC190B53EC102B51EC180BFAF7D6
:105780008FFE41EC100B2848844210DA53EC192BA1
:1057900051EC100BFAF77EFE53EC1A2BFAF77DFE54
:1057A00041EC100B02B0BDEC088B04B010BD1F48DB
:1057B000A042BCBF9FED1E1B8DED001B06DBA4F5B8
:1057C00000100190002000909DED001B51EC100B8B
:1057D00053EC112BFAF75EFE9DED000B41EC180B1C
:1057E00053EC102B51EC1A0BFAF754FE41EC1A0B48
:1057F00053EC192B51EC180BFAF74CFE53EC1A2B07
:10580000FAF74BFE41EC100BCCE700000000000063
:10581000000000000000F03F042E00000000000027
:10582000000000000000E03F3333D33F0000E93FB9
:10583000000000000000D23F70B504462DED028B41
:105840004D1E00EBC500B0EE408AF0EE608A90ED90
:10585000000B35F0060017D053EC182B51EC100B51
:10586000FAF71EFE41EC100B6D1E04EBC50090ED27
:10587000001B51EC100B53EC112BFAF76AFD41ECB5
:10588000100B35F00600E7D1022D36D0042D1CD0C8
:10589000062D1CBFBDEC028B70BD53EC182B51ECD8
:1058A000100BFAF7FDFD94ED0A1B53EC112BFAF7E0
:1058B00050FD53EC182BFAF7F3FD94ED081B53EC55
:1058C000112BFAF746FD41EC100B53EC182B51EC61
:1058D000100BFAF7E5FD94ED061B53EC112BFAF7CC
:1058E00038FD53EC182BFAF7DBFD94ED040B53EC69
:1058F000102BFAF72EFD41EC100B53EC182B51EC4A
:10590000100BFAF7CDFD94ED021B53EC112BFAF7B7
:1059100020FD53EC182BFAF7C3FD94ED001B53EC5C
:10592000112BFAF716FDBDEC028B41EC100B70BD8C
:1059300031B504462DED040B2DED0A8BB0EE41BAC6
:10594000F0EE61BA0B989DED0A0B20F00040B0F12B
:10595000795F0DDA51EC100BFEF742FF042808BF07
:1059600000F0A2F89DED0A0BBDEC0A8B05B030BD2E
:1059700053EC102B51EC100BFAF792FD41EC180B85
:105980009DED0A0B53EC182B51EC100BFAF788FD28
:1059900041EC190B2C48B0EE480AF0EE680A0521DC
:1059A0007844FFF749FF9FED2ACBB0EE40AAF0EE16
:1059B00060AA9CB353EC1C2B51EC190BFAF770FD49
:1059C00041EC1C0B53EC1A2B51EC190BFAF768FD48
:1059D0009FED210B41EC190B53EC102B51EC1B0BE1
:1059E000FAF75EFD53EC192BFAF754FD53EC182B24
:1059F000FAF756FD53EC1B2BFAF74CFD53EC1C2B1E
:105A0000FAF748FD9DED0A1B53EC112BFAF745FD03
:105A1000BDEC0A8B05B041EC100B30BDFFE753EC39
:105A20001A2B51EC180BFAF73BFD53EC1C2BFAF731
:105A300090FC53EC192BFAF733FD9DED0A1B53EC48
:105A4000112BFAF786FCE3E7942C0000000000001D
:105A5000495555555555C5BF000000000000E03FB1
:105A600010B553EC102B51EC100BFAF772FC41EC13
:105A7000100B10BD10B553EC112B51EC100BFAF7B5
:105A800068FC41EC100B10BD9FED050B10B553ECFD
:105A9000102B51EC100BFAF775FD41EC100B10BDFB
:105AA00000000000000000009FED050B10B553EC56
:105AB000102B51EC100BFAF7F3FC41EC100B10BD5E
:105AC000000000000000001002E008C8121F08C11A
:105AD000002AFAD170477047002001E001C1121F6F
